:0600000000F016EF00F015
:10000800FFFF1F82A4A00BEF00F00EEF00F0FFFF30
:1000180012EF00F0FFFFA490E0EC02F0FFFF1F9248
:100028001100FFFFA9EF03F0FFFF0F04D8A41FEF93
:1000380000F022EF00F0FFFF31EF00F0FFFF11505A
:10004800D8A429EF00F02CEF00F0FFFF31EF00F00B
:10005800FFFF000E106E52EF01F0FFFF0F04D8A44F
:1000680038EF00F03BEF00F0FFFF4AEF00F0FFFF32
:100078001104D8A442EF00F045EF00F0FFFF4AEF6B
:1000880000F0FFFF010E106E52EF01F0FFFF0F04AA
:10009800D8A451EF00F054EF00F0FFFF64EF00F038
:1000A800FFFF020E1118D8A45CEF00F05FEF00F01C
:1000B800FFFF64EF00F0FFFF020E106E52EF01F039
:1000C800FFFF0F04D8A46BEF00F06EEF00F0FFFF06
:1000D8007EEF00F0FFFF030E1118D8A476EF00F0B2
:1000E80079EF00F0FFFF7EEF00F0FFFF030E106EC8
:1000F80052EF01F0FFFF020E0F18D8A486EF00F0B0
:1001080089EF00F0FFFF98EF00F0FFFF1150D8A42F
:1001180090EF00F093EF00F0FFFF98EF00F0FFFF83
:10012800040E106E52EF01F0FFFF020E0F18D8A454
:10013800A0EF00F0A3EF00F0FFFFB2EF00F0FFFF29
:100148001104D8A4AAEF00F0ADEF00F0FFFFB2EF62
:1001580000F0FFFF050E106E52EF01F0FFFF020ED8
:100168000F18D8A4BAEF00F0BDEF00F0FFFFCDEFF5
:1001780000F0FFFF020E1118D8A4C5EF00F0C8EF79
:1001880000F0FFFFCDEF00F0FFFF060E106E52EFFC
:1001980001F0FFFF020E0F18D8A4D5EF00F0D8EF3A
:1001A80000F0FFFFE8EF00F0FFFF030E1118D8A4DE
:1001B800E0EF00F0E3EF00F0FFFFE8EF00F0FFFFF3
:1001C800070E106E52EF01F0FFFF030E0F18D8A4B0
:1001D800F0EF00F0F3EF00F0FFFF02EF01F0FFFF98
:1001E8001150D8A4FAEF00F0FDEF00F0FFFF02EF86
:1001F80001F0FFFF080E106E52EF01F0FFFF030E33
:100208000F18D8A40AEF01F00DEF01F0FFFF1CEF63
:1002180001F0FFFF1104D8A414EF01F017EF01F06B
:10022800FFFF1CEF01F0FFFF090E106E52EF01F007
:10023800FFFF030E0F18D8A424EF01F027EF01F0F9
:10024800FFFF37EF01F0FFFF020E1118D8A42FEFC0
:1002580001F032EF01F0FFFF37EF01F0FFFF0A0E68
:10026800106E52EF01F0FFFF030E0F18D8A43FEFF6
:1002780001F042EF01F0FFFF52EF01F0FFFF030E24
:100288001118D8A44AEF01F04DEF01F0FFFF52EF2B
:1002980001F0FFFF0B0E106E52EF01F0FFFF12008E
:1002A800FFFFFFFF1304D8B45CEF01F05FEF01F02C
:1002B800FFFF80EF01F0FFFF020E1318D8B467EFBD
:1002C80001F06AEF01F0FFFF80EF01F0FFFF030E7E
:1002D8001318D8B472EF01F075EF01F0FFFF80EF4B
:1002E80001F0FFFF040E1318D8A47DEF01F080EF92
:1002F80001F0FFFF85EF01F0FFFF010E0F6EFBEF2E
:1003080001F0FFFF050E1318D8B48DEF01F090EF40
:1003180001F0FFFFB1EF01F0FFFF060E1318D8B48C
:1003280098EF01F09BEF01F0FFFFB1EF01F0FFFF45
:10033800070E1318D8B4A3EF01F0A6EF01F0FFFFE2
:10034800B1EF01F0FFFF080E1318D8A4AEEF01F0CB
:10035800B1EF01F0FFFFB6EF01F0FFFF020E0F6EE5
:10036800FBEF01F0FFFF090E1318D8B4BEEF01F040
:10037800C1EF01F0FFFFF8EF01F0FFFF0A0E1318BD
:10038800D8B4C9EF01F0CCEF01F0FFFFF8EF01F0AE
:10039800FFFF0B0E1318D8B4D4EF01F0D7EF01F01C
:1003A800FFFFF8EF01F0FFFF0C0E1318D8B4DFEFD2
:1003B80001F0E2EF01F0FFFFF8EF01F0FFFF0D0E93
:1003C8001318D8B4EAEF01F0EDEF01F0FFFFF8EFF2
:1003D80001F0FFFF0E0E1318D8A4F5EF01F0F8EFA7
:1003E80001F0FFFFFBEF01F0FFFF030E0F6EFFFFB1
:1003F8001200FFFFFFFFFFFF81B005EF02F008EFDB
:1004080002F0FFFF2DEF02F0FFFF81A20EEF02F0D6
:1004180011EF02F0FFFF2DEF02F0FFFF1650D8B4E6
:1004280018EF02F01CEF02F0FFFF010E1EEF02F0C2
:10043800FFFF000EFFFF166E040E1A6ECF0E196E28
:10044800A50EFFFFE82EFDD7192EFBD71A2EF9D7D8
:1004580000D0FFFF81B233EF02F036EF02F0FFFF6A
:100468005CEF02F0FFFF1604D8A43DEF02F040EF66
:1004780002F0FFFF5CEF02F0FFFF1650D8B447EF21
:1004880002F04BEF02F0FFFF010E4DEF02F0FFFF0D
:10049800000EFFFF166E040E1A6ECF0E196EA50E13
:1004A800FFFFE82EFDD7192EFBD71A2EF9D700D05B
:1004B800FFFF16B002D0829001D082801200FFFFA9
:1004C800FFFFBFEC03F0D2EC03F0E5EC03F063ECC4
:1004D80003F0C9EC03F09AEC03F0FFFFFFEC01F026
:1004E80018EC03F01650D8B47CEF02F07FEF02F05E
:1004F800FFFF84EF02F0FFFFB4EC03F097EF02F088
:10050800FFFF000E176E000E156E000E146E000E23
:10051800136E000E116E000E126E000E0E6E000E9F
:100528000D6E000E0C6EFFFF0DC01AF00CC01BF014
:100538000E50A3EC02F071EF02F016EF00F0FFFF8F
:100548001E6E040E1D6ECF0E1C6EA50EFFFFE82E4C
:10055800FDD71C2EFBD71D2EF9D700D0080ED9ECDD
:1005680003F0200E736E670EE8CF41FFE00EE8CF70
:1005780042FF080EE8CF45FF2FEE46F01EC0DFFF12
:100588002FEE47F01AC0DFFF2FEE48F01BC0DFFF49
:10059800000EE8CF49FF000EE8CF4AFF000EE8CF73
:1005A8004BFF000EE8CF4CFF000EE8CF4DFF080EC2
:1005B800E8CF40FF1200FFFFFFFF0E0EDFEC03F055
:1005C800000E606E66CF01F067CF02F068CF03F0CF
:1005D80069CF04F06ACF05F06BCF06F06CCF07F057
:1005E8006DCF08F065CF09F062CF0AF061CF0BF04C
:1005F800609EE00E0A18D8A404EF03F007EF03F09A
:10060800FFFF15EF03F0FFFF450E0B18D8A40FEFFF
:1006180003F012EF03F0FFFF15EF03F0FFFF77EC95
:1006280003F0FFFF1200FFFFFFFF1604D8A41FEF1F
:1006380003F022EF03F0FFFF36EF03F0FFFF120491
:10064800D8A429EF03F02CEF03F0FFFF36EF03F0F7
:10065800FFFF010E176E17B002D0829201D082827E
:100668003EEF03F0FFFF000E176E17B002D0829224
:1006780001D08282FFFF17C014F01200FFFFFFFFB6
:100688001350D8B44AEF03F04DEF03F0FFFF58EFD3
:1006980003F0FFFF0F0E1318D8A455EF03F058EF1F
:1006A80003F0FFFF5DEF03F0FFFF010E126E60EF36
:1006B80003F0FFFF000E126EFFFF1200FFFFFFFFA7
:1006C800800ED9EC03F0800E8AEC03F0C10E706E38
:1006D800AE0E716E450E726E200E736E080ED9EC5A
:1006E80003F01200FFFFFFFF03C013F013500F0BBE
:1006F800136E04C011F01150030B116E43EC03F09C
:1007080055EC01F018EC00F01200FFFFFFFF196E26
:10071800FFFF19506E18D8A494EF03F097EF03F079
:10072800FFFF8CEF03F0FFFF1200FFFFFFFF000E3B
:10073800E8CF00FF000EE8CF01FF000EE8CF04FF6E
:10074800000EE8CF05FF1200FFFF00EE01F0170EC4
:10075800EE6AE806FDE11F901F92000164EF02F0C7
:10076800FFFF10C00EF01638F00B17100D6E14C0F6
:100778000CF01200FFFFFFFF9380938294909492F5
:10078800F19E829082921200FFFFFFFF000EE8CFD9
:1007980018FF000EE8CF19FF1200FFFFFFFFF28ECF
:1007A800F28CA380A5801200FFFFFFFF196E19C00D
:1007B8006FFF1200FFFFFFFF186E18C06FFF1200D7
:0E07C800FFFFFFFF938693941200FFFFFFFFD9
:020000040020DA
:08000000FFFFFFFFFFFFFFFF00
:020000040030CA
:04000000FF220D0EC0
:0800060080FF0FC00FE00F4066
:00000001FF
